{
  "_format": "hh-sol-artifact-1",
  "contractName": "Marketplace",
  "sourceName": "src/backend/contracts/MarketPlace.sol",
  "abi": [
    {
      "inputs": [
        {
          "internalType": "uint256",
          "name": "_feePercent",
          "type": "uint256"
        }
      ],
      "stateMutability": "nonpayable",
      "type": "constructor"
    },
    {
      "anonymous": false,
      "inputs": [
        {
          "indexed": false,
          "internalType": "uint256",
          "name": "itemId",
          "type": "uint256"
        },
        {
          "indexed": true,
          "internalType": "address",
          "name": "nft",
          "type": "address"
        },
        {
          "indexed": false,
          "internalType": "uint256",
          "name": "tokenId",
          "type": "uint256"
        },
        {
          "indexed": false,
          "internalType": "uint256",
          "name": "price",
          "type": "uint256"
        },
        {
          "indexed": true,
          "internalType": "address",
          "name": "seller",
          "type": "address"
        },
        {
          "indexed": true,
          "internalType": "address",
          "name": "buyer",
          "type": "address"
        }
      ],
      "name": "Bought",
      "type": "event"
    },
    {
      "anonymous": false,
      "inputs": [
        {
          "indexed": false,
          "internalType": "uint256",
          "name": "itemId",
          "type": "uint256"
        },
        {
          "indexed": true,
          "internalType": "address",
          "name": "nft",
          "type": "address"
        },
        {
          "indexed": false,
          "internalType": "uint256",
          "name": "tokenId",
          "type": "uint256"
        },
        {
          "indexed": false,
          "internalType": "uint256",
          "name": "price",
          "type": "uint256"
        },
        {
          "indexed": true,
          "internalType": "address",
          "name": "seller",
          "type": "address"
        }
      ],
      "name": "Offered",
      "type": "event"
    },
    {
      "inputs": [],
      "name": "feeAccount",
      "outputs": [
        {
          "internalType": "address payable",
          "name": "",
          "type": "address"
        }
      ],
      "stateMutability": "view",
      "type": "function"
    },
    {
      "inputs": [],
      "name": "feePercent",
      "outputs": [
        {
          "internalType": "uint256",
          "name": "",
          "type": "uint256"
        }
      ],
      "stateMutability": "view",
      "type": "function"
    },
    {
      "inputs": [
        {
          "internalType": "uint256",
          "name": "_itemId",
          "type": "uint256"
        }
      ],
      "name": "getTotalPrice",
      "outputs": [
        {
          "internalType": "uint256",
          "name": "",
          "type": "uint256"
        }
      ],
      "stateMutability": "view",
      "type": "function"
    },
    {
      "inputs": [],
      "name": "itemCount",
      "outputs": [
        {
          "internalType": "uint256",
          "name": "",
          "type": "uint256"
        }
      ],
      "stateMutability": "view",
      "type": "function"
    },
    {
      "inputs": [
        {
          "internalType": "uint256",
          "name": "",
          "type": "uint256"
        }
      ],
      "name": "items",
      "outputs": [
        {
          "internalType": "uint256",
          "name": "itemId",
          "type": "uint256"
        },
        {
          "internalType": "contract IERC721",
          "name": "nft",
          "type": "address"
        },
        {
          "internalType": "uint256",
          "name": "tokenId",
          "type": "uint256"
        },
        {
          "internalType": "uint256",
          "name": "price",
          "type": "uint256"
        },
        {
          "internalType": "address payable",
          "name": "seller",
          "type": "address"
        },
        {
          "internalType": "bool",
          "name": "sold",
          "type": "bool"
        }
      ],
      "stateMutability": "view",
      "type": "function"
    },
    {
      "inputs": [
        {
          "internalType": "contract IERC721",
          "name": "_nft",
          "type": "address"
        },
        {
          "internalType": "uint256",
          "name": "_tokenId",
          "type": "uint256"
        },
        {
          "internalType": "uint256",
          "name": "_price",
          "type": "uint256"
        }
      ],
      "name": "makeItem",
      "outputs": [],
      "stateMutability": "nonpayable",
      "type": "function"
    },
    {
      "inputs": [
        {
          "internalType": "uint256",
          "name": "_itemId",
          "type": "uint256"
        }
      ],
      "name": "purchaseItem",
      "outputs": [],
      "stateMutability": "payable",
      "type": "function"
    },
    {
      "inputs": [
        {
          "internalType": "uint256",
          "name": "_itemId",
          "type": "uint256"
        },
        {
          "internalType": "uint256",
          "name": "newPrice",
          "type": "uint256"
        }
      ],
      "name": "updateNftPrice",
      "outputs": [],
      "stateMutability": "nonpayable",
      "type": "function"
    }
  ],
  "bytecode": "0x60c06040523480156200001157600080fd5b5060405162001cfd38038062001cfd83398181016040528101906200003791906200021e565b60016000819055506200008b6040518060400160405280600b81526020017f5f66656550657263656e7400000000000000000000000000000000000000000081525082620000ce60201b62000db41760201c565b3373ffffffffffffffffffffffffffffffffffffffff1660808173ffffffffffffffffffffffffffffffffffffffff16815250508060a081815250505062000368565b620001708282604051602401620000e792919062000305565b6040516020818303038152906040527fb60e72cc000000000000000000000000000000000000000000000000000000007bffffffffffffffffffffffffffffffffffffffffffffffffffffffff19166020820180517bffffffffffffffffffffffffffffffffffffffffffffffffffffffff83818316178352505050506200017460201b60201c565b5050565b6200019a81620001956200019d60201b62000e5017620001be60201b60201c565b60201c565b50565b60006a636f6e736f6c652e6c6f679050600080835160208501845afa505050565b620001d260201b6200102817819050919050565b620001dc62000339565b565b600080fd5b6000819050919050565b620001f881620001e3565b81146200020457600080fd5b50565b6000815190506200021881620001ed565b92915050565b600060208284031215620002375762000236620001de565b5b6000620002478482850162000207565b91505092915050565b600081519050919050565b600082825260208201905092915050565b60005b838110156200028c5780820151818401526020810190506200026f565b838111156200029c576000848401525b50505050565b6000601f19601f8301169050919050565b6000620002c08262000250565b620002cc81856200025b565b9350620002de8185602086016200026c565b620002e981620002a2565b840191505092915050565b620002ff81620001e3565b82525050565b60006040820190508181036000830152620003218185620002b3565b9050620003326020830184620002f4565b9392505050565b7f4e487b7100000000000000000000000000000000000000000000000000000000600052605160045260246000fd5b60805160a051611953620003aa6000396000818161021a0152818161034101526103be0152600081816101f00152818161069701526106bd01526119536000f3fe60806040526004361061007b5760003560e01c8063ca7dd3751161004e578063ca7dd37514610143578063d38ea5bf14610180578063e52ed82e1461019c578063fa00afc7146101c55761007b565b806365e17c9d146100805780636bfb0d01146100ab5780637fd6f15c146100d6578063bfb231d214610101575b600080fd5b34801561008c57600080fd5b506100956101ee565b6040516100a29190611073565b60405180910390f35b3480156100b757600080fd5b506100c0610212565b6040516100cd91906110a7565b60405180910390f35b3480156100e257600080fd5b506100eb610218565b6040516100f891906110a7565b60405180910390f35b34801561010d57600080fd5b50610128600480360381019061012391906110f3565b61023c565b60405161013a9695949392919061119a565b60405180910390f35b34801561014f57600080fd5b5061016a600480360381019061016591906110f3565b6102c5565b60405161017791906110a7565b60405180910390f35b61019a600480360381019061019591906110f3565b61041b565b005b3480156101a857600080fd5b506101c360048036038101906101be91906111fb565b610983565b005b3480156101d157600080fd5b506101ec60048036038101906101e7919061128b565b610a2a565b005b7f000000000000000000000000000000000000000000000000000000000000000081565b60015481565b7f000000000000000000000000000000000000000000000000000000000000000081565b60026020528060005260406000206000915090508060000154908060010160009054906101000a900473ffffffffffffffffffffffffffffffffffffffff16908060020154908060030154908060040160009054906101000a900473ffffffffffffffffffffffffffffffffffffffff16908060040160149054906101000a900460ff16905086565b60006103066040518060400160405280600a81526020017f5f6974656d4964203a200000000000000000000000000000000000000000000081525083610db4565b6103656040518060400160405280600d81526020017f66656550657263656e74203a20000000000000000000000000000000000000008152507f0000000000000000000000000000000000000000000000000000000000000000610db4565b6103ba6040518060400160405280600881526020017f7072696365203a200000000000000000000000000000000000000000000000008152506002600085815260200190815260200160002060030154610db4565b60647f000000000000000000000000000000000000000000000000000000000000000060646103e9919061130d565b600260008581526020019081526020016000206003015461040a9190611363565b61041491906113ec565b9050919050565b610423610e71565b600061042e826102c5565b905060006002600084815260200190815260200160002090506104866040518060400160405280600881526020017f6d736756616c756500000000000000000000000000000000000000000000000081525034610db4565b6104c56040518060400160405280600b81526020017f5f746f74616c507269636500000000000000000000000000000000000000000081525083610db4565b6000831180156104d757506001548311155b610516576040517f08c379a000000000000000000000000000000000000000000000000000000000815260040161050d9061147a565b60405180910390fd5b81341015610559576040517f08c379a00000000000000000000000000000000000000000000000000000000081526004016105509061150c565b60405180910390fd5b61059b6040518060400160405280600981526020017f636f6e646974696f6e000000000000000000000000000000000000000000000081525083341015610ec1565b8060040160149054906101000a900460ff16156105ed576040517f08c379a00000000000000000000000000000000000000000000000000000000081526004016105e490611578565b60405180910390fd5b8060040160009054906101000a900473ffffffffffffffffffffffffffffffffffffffff1673ffffffffffffffffffffffffffffffffffffffff166108fc82600301549081150290604051600060405180830381858888f1935050505015801561065b573d6000803e3d6000fd5b506106bb6040518060400160405280600a81526020017f6665654163636f756e74000000000000000000000000000000000000000000008152507f0000000000000000000000000000000000000000000000000000000000000000610f5d565b7f000000000000000000000000000000000000000000000000000000000000000073ffffffffffffffffffffffffffffffffffffffff166108fc8260030154846107059190611598565b9081150290604051600060405180830381858888f19350505050158015610730573d6000803e3d6000fd5b5060018160040160146101000a81548160ff02191690831515021790555061078d6040518060400160405280600c81526020017f707572636861736572203a20000000000000000000000000000000000000000081525033610f5d565b6107d06040518060400160405280600f81526020017f6974656d2e746f6b656e4964203a2000000000000000000000000000000000008152508260020154610db4565b61080f6040518060400160405280600481526020017f6164643a0000000000000000000000000000000000000000000000000000000081525030610f5d565b8060010160009054906101000a900473ffffffffffffffffffffffffffffffffffffffff1673ffffffffffffffffffffffffffffffffffffffff166323b872dd303384600201546040518463ffffffff1660e01b8152600401610874939291906115db565b600060405180830381600087803b15801561088e57600080fd5b505af11580156108a2573d6000803e3d6000fd5b505050503373ffffffffffffffffffffffffffffffffffffffff168160040160009054906101000a900473ffffffffffffffffffffffffffffffffffffffff1673ffffffffffffffffffffffffffffffffffffffff168260010160009054906101000a900473ffffffffffffffffffffffffffffffffffffffff1673ffffffffffffffffffffffffffffffffffffffff167f8b4c9c8a607d67b321582dd8461041b1dc2ceeca70c8b7f37f8e02095cf2e76d868560020154866003015460405161096e93929190611612565b60405180910390a45050610980610ff9565b50565b60006002600084815260200190815260200160002090506109d96040518060400160405280600481526020017f6974656d0000000000000000000000000000000000000000000000000000000081525084610db4565b60008211610a1c576040517f08c379a0000000000000000000000000000000000000000000000000000000008152600401610a1390611695565b60405180910390fd5b818160030181905550505050565b610a32610e71565b60008111610a75576040517f08c379a0000000000000000000000000000000000000000000000000000000008152600401610a6c90611701565b60405180910390fd5b60016000815480929190610a8890611721565b91905055508273ffffffffffffffffffffffffffffffffffffffff166323b872dd3330856040518463ffffffff1660e01b8152600401610aca939291906115db565b600060405180830381600087803b158015610ae457600080fd5b505af1158015610af8573d6000803e3d6000fd5b505050506040518060c0016040528060015481526020018473ffffffffffffffffffffffffffffffffffffffff1681526020018381526020018281526020013373ffffffffffffffffffffffffffffffffffffffff168152602001600015158152506002600060015481526020019081526020016000206000820151816000015560208201518160010160006101000a81548173ffffffffffffffffffffffffffffffffffffffff021916908373ffffffffffffffffffffffffffffffffffffffff160217905550604082015181600201556060820151816003015560808201518160040160006101000a81548173ffffffffffffffffffffffffffffffffffffffff021916908373ffffffffffffffffffffffffffffffffffffffff16021790555060a08201518160040160146101000a81548160ff021916908315150217905550905050610c7f6040518060400160405280600c81526020017f6974656d436f756e74203a200000000000000000000000000000000000000000815250600154610db4565b610cbe6040518060400160405280600d81526020017f6d73672e73656e646572203a200000000000000000000000000000000000000081525033610f5d565b610cfd6040518060400160405280600b81526020017f5f746f6b656e4964203a2000000000000000000000000000000000000000000081525083610db4565b610d3c6040518060400160405280600981526020017f5f7072696365203a20000000000000000000000000000000000000000000000081525082610db4565b3373ffffffffffffffffffffffffffffffffffffffff168373ffffffffffffffffffffffffffffffffffffffff167f655a0cf9c8db81512be9a76dc1c5ae5380b8816ce6ad659cd61b715e2999d59a6001548585604051610d9f93929190611612565b60405180910390a3610daf610ff9565b505050565b610e4c8282604051602401610dca9291906117f2565b6040516020818303038152906040527fb60e72cc000000000000000000000000000000000000000000000000000000007bffffffffffffffffffffffffffffffffffffffffffffffffffffffff19166020820180517bffffffffffffffffffffffffffffffffffffffffffffffffffffffff8381831617835250505050611003565b5050565b60006a636f6e736f6c652e6c6f679050600080835160208501845afa505050565b60026000541415610eb7576040517f08c379a0000000000000000000000000000000000000000000000000000000008152600401610eae9061186e565b60405180910390fd5b6002600081905550565b610f598282604051602401610ed792919061188e565b6040516020818303038152906040527fc3b55635000000000000000000000000000000000000000000000000000000007bffffffffffffffffffffffffffffffffffffffffffffffffffffffff19166020820180517bffffffffffffffffffffffffffffffffffffffffffffffffffffffff8381831617835250505050611003565b5050565b610ff58282604051602401610f739291906118be565b6040516020818303038152906040527f319af333000000000000000000000000000000000000000000000000000000007bffffffffffffffffffffffffffffffffffffffffffffffffffffffff19166020820180517bffffffffffffffffffffffffffffffffffffffffffffffffffffffff8381831617835250505050611003565b5050565b6001600081905550565b61101a81611012610e5061101d565b63ffffffff16565b50565b611028819050919050565b6110306118ee565b565b600073ffffffffffffffffffffffffffffffffffffffff82169050919050565b600061105d82611032565b9050919050565b61106d81611052565b82525050565b60006020820190506110886000830184611064565b92915050565b6000819050919050565b6110a18161108e565b82525050565b60006020820190506110bc6000830184611098565b92915050565b600080fd5b6110d08161108e565b81146110db57600080fd5b50565b6000813590506110ed816110c7565b92915050565b600060208284031215611109576111086110c2565b5b6000611117848285016110de565b91505092915050565b6000819050919050565b600061114561114061113b84611032565b611120565b611032565b9050919050565b60006111578261112a565b9050919050565b60006111698261114c565b9050919050565b6111798161115e565b82525050565b60008115159050919050565b6111948161117f565b82525050565b600060c0820190506111af6000830189611098565b6111bc6020830188611170565b6111c96040830187611098565b6111d66060830186611098565b6111e36080830185611064565b6111f060a083018461118b565b979650505050505050565b60008060408385031215611212576112116110c2565b5b6000611220858286016110de565b9250506020611231858286016110de565b9150509250929050565b600061124682611032565b9050919050565b60006112588261123b565b9050919050565b6112688161124d565b811461127357600080fd5b50565b6000813590506112858161125f565b92915050565b6000806000606084860312156112a4576112a36110c2565b5b60006112b286828701611276565b93505060206112c3868287016110de565b92505060406112d4868287016110de565b9150509250925092565b7f4e487b7100000000000000000000000000000000000000000000000000000000600052601160045260246000fd5b60006113188261108e565b91506113238361108e565b9250827fffffffffffffffffffffffffffffffffffffffffffffffffffffffffffffffff03821115611358576113576112de565b5b828201905092915050565b600061136e8261108e565b91506113798361108e565b9250817fffffffffffffffffffffffffffffffffffffffffffffffffffffffffffffffff04831182151516156113b2576113b16112de565b5b828202905092915050565b7f4e487b7100000000000000000000000000000000000000000000000000000000600052601260045260246000fd5b60006113f78261108e565b91506114028361108e565b925082611412576114116113bd565b5b828204905092915050565b600082825260208201905092915050565b7f6974656d20646f65736e27742065786973740000000000000000000000000000600082015250565b600061146460128361141d565b915061146f8261142e565b602082019050919050565b6000602082019050818103600083015261149381611457565b9050919050565b7f6e6f7420656e6f75676820657468657220746f20636f766572206974656d207060008201527f7269636520616e64206d61726b65742066656500000000000000000000000000602082015250565b60006114f660338361141d565b91506115018261149a565b604082019050919050565b60006020820190508181036000830152611525816114e9565b9050919050565b7f6974656d20616c726561647920736f6c64000000000000000000000000000000600082015250565b600061156260118361141d565b915061156d8261152c565b602082019050919050565b6000602082019050818103600083015261159181611555565b9050919050565b60006115a38261108e565b91506115ae8361108e565b9250828210156115c1576115c06112de565b5b828203905092915050565b6115d58161123b565b82525050565b60006060820190506115f060008301866115cc565b6115fd60208301856115cc565b61160a6040830184611098565b949350505050565b60006060820190506116276000830186611098565b6116346020830185611098565b6116416040830184611098565b949350505050565b7f457468657220746f6f206c6f7721000000000000000000000000000000000000600082015250565b600061167f600e8361141d565b915061168a82611649565b602082019050919050565b600060208201905081810360008301526116ae81611672565b9050919050565b7f5072696365206d7573742062652067726561746572207468616e207a65726f00600082015250565b60006116eb601f8361141d565b91506116f6826116b5565b602082019050919050565b6000602082019050818103600083015261171a816116de565b9050919050565b600061172c8261108e565b91507fffffffffffffffffffffffffffffffffffffffffffffffffffffffffffffffff82141561175f5761175e6112de565b5b600182019050919050565b600081519050919050565b60005b83811015611793578082015181840152602081019050611778565b838111156117a2576000848401525b50505050565b6000601f19601f8301169050919050565b60006117c48261176a565b6117ce818561141d565b93506117de818560208601611775565b6117e7816117a8565b840191505092915050565b6000604082019050818103600083015261180c81856117b9565b905061181b6020830184611098565b9392505050565b7f5265656e7472616e637947756172643a207265656e7472616e742063616c6c00600082015250565b6000611858601f8361141d565b915061186382611822565b602082019050919050565b600060208201905081810360008301526118878161184b565b9050919050565b600060408201905081810360008301526118a881856117b9565b90506118b7602083018461118b565b9392505050565b600060408201905081810360008301526118d881856117b9565b90506118e760208301846115cc565b9392505050565b7f4e487b7100000000000000000000000000000000000000000000000000000000600052605160045260246000fdfea264697066735822122012794c36d4278abc2b2fc3dcf8af57c64218b13ee5f9a7ca527132e873c699ef64736f6c63430008090033",
  "linkReferences": {},
  "deployedLinkReferences": {}
}