{
  "_format": "hh-sol-artifact-1",
  "contractName": "NFT",
  "sourceName": "src/backend/contracts/NFT.sol",
  "abi": [
    {
      "inputs": [],
      "stateMutability": "nonpayable",
      "type": "constructor"
    },
    {
      "anonymous": false,
      "inputs": [
        {
          "indexed": true,
          "internalType": "address",
          "name": "owner",
          "type": "address"
        },
        {
          "indexed": true,
          "internalType": "address",
          "name": "approved",
          "type": "address"
        },
        {
          "indexed": true,
          "internalType": "uint256",
          "name": "tokenId",
          "type": "uint256"
        }
      ],
      "name": "Approval",
      "type": "event"
    },
    {
      "anonymous": false,
      "inputs": [
        {
          "indexed": true,
          "internalType": "address",
          "name": "owner",
          "type": "address"
        },
        {
          "indexed": true,
          "internalType": "address",
          "name": "operator",
          "type": "address"
        },
        {
          "indexed": false,
          "internalType": "bool",
          "name": "approved",
          "type": "bool"
        }
      ],
      "name": "ApprovalForAll",
      "type": "event"
    },
    {
      "anonymous": false,
      "inputs": [
        {
          "indexed": false,
          "internalType": "uint256",
          "name": "_fromTokenId",
          "type": "uint256"
        },
        {
          "indexed": false,
          "internalType": "uint256",
          "name": "_toTokenId",
          "type": "uint256"
        }
      ],
      "name": "BatchMetadataUpdate",
      "type": "event"
    },
    {
      "anonymous": false,
      "inputs": [
        {
          "indexed": false,
          "internalType": "uint256",
          "name": "_tokenId",
          "type": "uint256"
        }
      ],
      "name": "MetadataUpdate",
      "type": "event"
    },
    {
      "anonymous": false,
      "inputs": [
        {
          "indexed": true,
          "internalType": "address",
          "name": "from",
          "type": "address"
        },
        {
          "indexed": true,
          "internalType": "address",
          "name": "to",
          "type": "address"
        },
        {
          "indexed": true,
          "internalType": "uint256",
          "name": "tokenId",
          "type": "uint256"
        }
      ],
      "name": "Transfer",
      "type": "event"
    },
    {
      "inputs": [
        {
          "internalType": "address",
          "name": "to",
          "type": "address"
        },
        {
          "internalType": "uint256",
          "name": "tokenId",
          "type": "uint256"
        }
      ],
      "name": "approve",
      "outputs": [],
      "stateMutability": "nonpayable",
      "type": "function"
    },
    {
      "inputs": [
        {
          "internalType": "address",
          "name": "owner",
          "type": "address"
        }
      ],
      "name": "balanceOf",
      "outputs": [
        {
          "internalType": "uint256",
          "name": "",
          "type": "uint256"
        }
      ],
      "stateMutability": "view",
      "type": "function"
    },
    {
      "inputs": [
        {
          "internalType": "uint256",
          "name": "tokenId",
          "type": "uint256"
        }
      ],
      "name": "getApproved",
      "outputs": [
        {
          "internalType": "address",
          "name": "",
          "type": "address"
        }
      ],
      "stateMutability": "view",
      "type": "function"
    },
    {
      "inputs": [
        {
          "internalType": "address",
          "name": "owner",
          "type": "address"
        },
        {
          "internalType": "address",
          "name": "operator",
          "type": "address"
        }
      ],
      "name": "isApprovedForAll",
      "outputs": [
        {
          "internalType": "bool",
          "name": "",
          "type": "bool"
        }
      ],
      "stateMutability": "view",
      "type": "function"
    },
    {
      "inputs": [
        {
          "internalType": "string",
          "name": "_tokenURI",
          "type": "string"
        }
      ],
      "name": "mintNft",
      "outputs": [
        {
          "internalType": "uint256",
          "name": "",
          "type": "uint256"
        }
      ],
      "stateMutability": "nonpayable",
      "type": "function"
    },
    {
      "inputs": [],
      "name": "name",
      "outputs": [
        {
          "internalType": "string",
          "name": "",
          "type": "string"
        }
      ],
      "stateMutability": "view",
      "type": "function"
    },
    {
      "inputs": [
        {
          "internalType": "uint256",
          "name": "tokenId",
          "type": "uint256"
        }
      ],
      "name": "ownerOf",
      "outputs": [
        {
          "internalType": "address",
          "name": "",
          "type": "address"
        }
      ],
      "stateMutability": "view",
      "type": "function"
    },
    {
      "inputs": [
        {
          "internalType": "address",
          "name": "from",
          "type": "address"
        },
        {
          "internalType": "address",
          "name": "to",
          "type": "address"
        },
        {
          "internalType": "uint256",
          "name": "tokenId",
          "type": "uint256"
        }
      ],
      "name": "safeTransferFrom",
      "outputs": [],
      "stateMutability": "nonpayable",
      "type": "function"
    },
    {
      "inputs": [
        {
          "internalType": "address",
          "name": "from",
          "type": "address"
        },
        {
          "internalType": "address",
          "name": "to",
          "type": "address"
        },
        {
          "internalType": "uint256",
          "name": "tokenId",
          "type": "uint256"
        },
        {
          "internalType": "bytes",
          "name": "data",
          "type": "bytes"
        }
      ],
      "name": "safeTransferFrom",
      "outputs": [],
      "stateMutability": "nonpayable",
      "type": "function"
    },
    {
      "inputs": [
        {
          "internalType": "address",
          "name": "operator",
          "type": "address"
        },
        {
          "internalType": "bool",
          "name": "approved",
          "type": "bool"
        }
      ],
      "name": "setApprovalForAll",
      "outputs": [],
      "stateMutability": "nonpayable",
      "type": "function"
    },
    {
      "inputs": [
        {
          "internalType": "bytes4",
          "name": "interfaceId",
          "type": "bytes4"
        }
      ],
      "name": "supportsInterface",
      "outputs": [
        {
          "internalType": "bool",
          "name": "",
          "type": "bool"
        }
      ],
      "stateMutability": "view",
      "type": "function"
    },
    {
      "inputs": [],
      "name": "symbol",
      "outputs": [
        {
          "internalType": "string",
          "name": "",
          "type": "string"
        }
      ],
      "stateMutability": "view",
      "type": "function"
    },
    {
      "inputs": [],
      "name": "tokenCount",
      "outputs": [
        {
          "internalType": "uint256",
          "name": "",
          "type": "uint256"
        }
      ],
      "stateMutability": "view",
      "type": "function"
    },
    {
      "inputs": [
        {
          "internalType": "uint256",
          "name": "tokenId",
          "type": "uint256"
        }
      ],
      "name": "tokenURI",
      "outputs": [
        {
          "internalType": "string",
          "name": "",
          "type": "string"
        }
      ],
      "stateMutability": "view",
      "type": "function"
    },
    {
      "inputs": [
        {
          "internalType": "address",
          "name": "from",
          "type": "address"
        },
        {
          "internalType": "address",
          "name": "to",
          "type": "address"
        },
        {
          "internalType": "uint256",
          "name": "tokenId",
          "type": "uint256"
        }
      ],
      "name": "transferFrom",
      "outputs": [],
      "stateMutability": "nonpayable",
      "type": "function"
    }
  ],
  "bytecode": "0x60806040523480156200001157600080fd5b506040518060400160405280600881526020017f44417070204e46540000000000000000000000000000000000000000000000008152506040518060400160405280600481526020017f4441505000000000000000000000000000000000000000000000000000000000815250816000908051906020019062000096929190620000b8565b508060019080519060200190620000af929190620000b8565b505050620001cd565b828054620000c69062000197565b90600052602060002090601f016020900481019282620000ea576000855562000136565b82601f106200010557805160ff191683800117855562000136565b8280016001018555821562000136579182015b828111156200013557825182559160200191906001019062000118565b5b50905062000145919062000149565b5090565b5b80821115620001645760008160009055506001016200014a565b5090565b7f4e487b7100000000000000000000000000000000000000000000000000000000600052602260045260246000fd5b60006002820490506001821680620001b057607f821691505b60208210811415620001c757620001c662000168565b5b50919050565b612dcd80620001dd6000396000f3fe608060405234801561001057600080fd5b50600436106100f55760003560e01c806370a0823111610097578063b88d4fde11610066578063b88d4fde14610284578063c87b56dd146102a0578063da86f4a9146102d0578063e985e9c514610300576100f5565b806370a08231146101fc57806395d89b411461022c5780639f181b5e1461024a578063a22cb46514610268576100f5565b8063095ea7b3116100d3578063095ea7b31461017857806323b872dd1461019457806342842e0e146101b05780636352211e146101cc576100f5565b806301ffc9a7146100fa57806306fdde031461012a578063081812fc14610148575b600080fd5b610114600480360381019061010f9190611e05565b610330565b6040516101219190611e4d565b60405180910390f35b610132610391565b60405161013f9190611f01565b60405180910390f35b610162600480360381019061015d9190611f59565b610423565b60405161016f9190611fc7565b60405180910390f35b610192600480360381019061018d919061200e565b610469565b005b6101ae60048036038101906101a9919061204e565b610581565b005b6101ca60048036038101906101c5919061204e565b6105e1565b005b6101e660048036038101906101e19190611f59565b610601565b6040516101f39190611fc7565b60405180910390f35b610216600480360381019061021191906120a1565b610688565b60405161022391906120dd565b60405180910390f35b610234610740565b6040516102419190611f01565b60405180910390f35b6102526107d2565b60405161025f91906120dd565b60405180910390f35b610282600480360381019061027d9190612124565b6107d8565b005b61029e60048036038101906102999190612299565b6107ee565b005b6102ba60048036038101906102b59190611f59565b610850565b6040516102c79190611f01565b60405180910390f35b6102ea60048036038101906102e591906123bd565b610963565b6040516102f791906120dd565b60405180910390f35b61031a60048036038101906103159190612406565b610a5e565b6040516103279190611e4d565b60405180910390f35b6000634906490660e01b7bffffffffffffffffffffffffffffffffffffffffffffffffffffffff1916827bffffffffffffffffffffffffffffffffffffffffffffffffffffffff1916148061038a575061038982610af2565b5b9050919050565b6060600080546103a090612475565b80601f01602080910402602001604051908101604052809291908181526020018280546103cc90612475565b80156104195780601f106103ee57610100808354040283529160200191610419565b820191906000526020600020905b8154815290600101906020018083116103fc57829003601f168201915b5050505050905090565b600061042e82610bd4565b6004600083815260200190815260200160002060009054906101000a900473ffffffffffffffffffffffffffffffffffffffff169050919050565b600061047482610601565b90508073ffffffffffffffffffffffffffffffffffffffff168373ffffffffffffffffffffffffffffffffffffffff1614156104e5576040517f08c379a00000000000000000000000000000000000000000000000000000000081526004016104dc90612519565b60405180910390fd5b8073ffffffffffffffffffffffffffffffffffffffff16610504610c1f565b73ffffffffffffffffffffffffffffffffffffffff16148061053357506105328161052d610c1f565b610a5e565b5b610572576040517f08c379a0000000000000000000000000000000000000000000000000000000008152600401610569906125ab565b60405180910390fd5b61057c8383610c27565b505050565b61059261058c610c1f565b82610ce0565b6105d1576040517f08c379a00000000000000000000000000000000000000000000000000000000081526004016105c89061263d565b60405180910390fd5b6105dc838383610d75565b505050565b6105fc838383604051806020016040528060008152506107ee565b505050565b60008061060d8361106f565b9050600073ffffffffffffffffffffffffffffffffffffffff168173ffffffffffffffffffffffffffffffffffffffff16141561067f576040517f08c379a0000000000000000000000000000000000000000000000000000000008152600401610676906126a9565b60405180910390fd5b80915050919050565b60008073ffffffffffffffffffffffffffffffffffffffff168273ffffffffffffffffffffffffffffffffffffffff1614156106f9576040517f08c379a00000000000000000000000000000000000000000000000000000000081526004016106f09061273b565b60405180910390fd5b600360008373ffffffffffffffffffffffffffffffffffffffff1673ffffffffffffffffffffffffffffffffffffffff168152602001908152602001600020549050919050565b60606001805461074f90612475565b80601f016020809104026020016040519081016040528092919081815260200182805461077b90612475565b80156107c85780601f1061079d576101008083540402835291602001916107c8565b820191906000526020600020905b8154815290600101906020018083116107ab57829003601f168201915b5050505050905090565b60075481565b6107ea6107e3610c1f565b83836110ac565b5050565b6107ff6107f9610c1f565b83610ce0565b61083e576040517f08c379a00000000000000000000000000000000000000000000000000000000081526004016108359061263d565b60405180910390fd5b61084a84848484611219565b50505050565b606061085b82610bd4565b600060066000848152602001908152602001600020805461087b90612475565b80601f01602080910402602001604051908101604052809291908181526020018280546108a790612475565b80156108f45780601f106108c9576101008083540402835291602001916108f4565b820191906000526020600020905b8154815290600101906020018083116108d757829003601f168201915b505050505090506000610905611275565b905060008151141561091b57819250505061095e565b600082511115610950578082604051602001610938929190612797565b6040516020818303038152906040529250505061095e565b6109598461128c565b925050505b919050565b60006109a46040518060400160405280600c81526020017f5f746f6b656e555249203a200000000000000000000000000000000000000000815250836112f4565b6109e56040518060400160405280600d81526020017f746f6b656e436f756e74203a2000000000000000000000000000000000000000815250600754611390565b600760008154809291906109f8906127ea565b9190505550610a3c6040518060400160405280600581526020017f726974696b0000000000000000000000000000000000000000000000000000008152503361142c565b610a48336007546114c8565b610a54600754836114e6565b6007549050919050565b6000600560008473ffffffffffffffffffffffffffffffffffffffff1673ffffffffffffffffffffffffffffffffffffffff16815260200190815260200160002060008373ffffffffffffffffffffffffffffffffffffffff1673ffffffffffffffffffffffffffffffffffffffff16815260200190815260200160002060009054906101000a900460ff16905092915050565b60007f80ac58cd000000000000000000000000000000000000000000000000000000007bffffffffffffffffffffffffffffffffffffffffffffffffffffffff1916827bffffffffffffffffffffffffffffffffffffffffffffffffffffffff19161480610bbd57507f5b5e139f000000000000000000000000000000000000000000000000000000007bffffffffffffffffffffffffffffffffffffffffffffffffffffffff1916827bffffffffffffffffffffffffffffffffffffffffffffffffffffffff1916145b80610bcd5750610bcc82611591565b5b9050919050565b610bdd816115fb565b610c1c576040517f08c379a0000000000000000000000000000000000000000000000000000000008152600401610c13906126a9565b60405180910390fd5b50565b600033905090565b816004600083815260200190815260200160002060006101000a81548173ffffffffffffffffffffffffffffffffffffffff021916908373ffffffffffffffffffffffffffffffffffffffff160217905550808273ffffffffffffffffffffffffffffffffffffffff16610c9a83610601565b73ffffffffffffffffffffffffffffffffffffffff167f8c5be1e5ebec7d5bd14f71427d1e84f3dd0314c0f7b2291e5b200ac8c7c3b92560405160405180910390a45050565b600080610cec83610601565b90508073ffffffffffffffffffffffffffffffffffffffff168473ffffffffffffffffffffffffffffffffffffffff161480610d2e5750610d2d8185610a5e565b5b80610d6c57508373ffffffffffffffffffffffffffffffffffffffff16610d5484610423565b73ffffffffffffffffffffffffffffffffffffffff16145b91505092915050565b8273ffffffffffffffffffffffffffffffffffffffff16610d9582610601565b73ffffffffffffffffffffffffffffffffffffffff1614610deb576040517f08c379a0000000000000000000000000000000000000000000000000000000008152600401610de2906128a5565b60405180910390fd5b600073ffffffffffffffffffffffffffffffffffffffff168273ffffffffffffffffffffffffffffffffffffffff161415610e5b576040517f08c379a0000000000000000000000000000000000000000000000000000000008152600401610e5290612937565b60405180910390fd5b610e68838383600161163c565b8273ffffffffffffffffffffffffffffffffffffffff16610e8882610601565b73ffffffffffffffffffffffffffffffffffffffff1614610ede576040517f08c379a0000000000000000000000000000000000000000000000000000000008152600401610ed5906128a5565b60405180910390fd5b6004600082815260200190815260200160002060006101000a81549073ffffffffffffffffffffffffffffffffffffffff02191690556001600360008573ffffffffffffffffffffffffffffffffffffffff1673ffffffffffffffffffffffffffffffffffffffff168152602001908152602001600020600082825403925050819055506001600360008473ffffffffffffffffffffffffffffffffffffffff1673ffffffffffffffffffffffffffffffffffffffff16815260200190815260200160002060008282540192505081905550816002600083815260200190815260200160002060006101000a81548173ffffffffffffffffffffffffffffffffffffffff021916908373ffffffffffffffffffffffffffffffffffffffff160217905550808273ffffffffffffffffffffffffffffffffffffffff168473ffffffffffffffffffffffffffffffffffffffff167fddf252ad1be2c89b69c2b068fc378daa952ba7f163c4a11628f55a4df523b3ef60405160405180910390a461106a8383836001611642565b505050565b60006002600083815260200190815260200160002060009054906101000a900473ffffffffffffffffffffffffffffffffffffffff169050919050565b8173ffffffffffffffffffffffffffffffffffffffff168373ffffffffffffffffffffffffffffffffffffffff16141561111b576040517f08c379a0000000000000000000000000000000000000000000000000000000008152600401611112906129a3565b60405180910390fd5b80600560008573ffffffffffffffffffffffffffffffffffffffff1673ffffffffffffffffffffffffffffffffffffffff16815260200190815260200160002060008473ffffffffffffffffffffffffffffffffffffffff1673ffffffffffffffffffffffffffffffffffffffff16815260200190815260200160002060006101000a81548160ff0219169083151502179055508173ffffffffffffffffffffffffffffffffffffffff168373ffffffffffffffffffffffffffffffffffffffff167f17307eab39ab6107e8899845ad3d59bd9653f200f220920489ca2b5937696c318360405161120c9190611e4d565b60405180910390a3505050565b611224848484610d75565b61123084848484611648565b61126f576040517f08c379a000000000000000000000000000000000000000000000000000000000815260040161126690612a35565b60405180910390fd5b50505050565b606060405180602001604052806000815250905090565b606061129782610bd4565b60006112a1611275565b905060008151116112c157604051806020016040528060008152506112ec565b806112cb846117df565b6040516020016112dc929190612797565b6040516020818303038152906040525b915050919050565b61138c828260405160240161130a929190612a55565b6040516020818303038152906040527f4b5c4277000000000000000000000000000000000000000000000000000000007bffffffffffffffffffffffffffffffffffffffffffffffffffffffff19166020820180517bffffffffffffffffffffffffffffffffffffffffffffffffffffffff83818316178352505050506118b7565b5050565b61142882826040516024016113a6929190612a8c565b6040516020818303038152906040527fb60e72cc000000000000000000000000000000000000000000000000000000007bffffffffffffffffffffffffffffffffffffffffffffffffffffffff19166020820180517bffffffffffffffffffffffffffffffffffffffffffffffffffffffff83818316178352505050506118b7565b5050565b6114c48282604051602401611442929190612abc565b6040516020818303038152906040527f319af333000000000000000000000000000000000000000000000000000000007bffffffffffffffffffffffffffffffffffffffffffffffffffffffff19166020820180517bffffffffffffffffffffffffffffffffffffffffffffffffffffffff83818316178352505050506118b7565b5050565b6114e28282604051806020016040528060008152506118d1565b5050565b6114ef826115fb565b61152e576040517f08c379a000000000000000000000000000000000000000000000000000000000815260040161152590612b5e565b60405180910390fd5b80600660008481526020019081526020016000209080519060200190611555929190611cec565b507ff8e1a15aba9398e019f0b49df1a4fde98ee17ae345cb5f6b5e2c27f5033e8ce78260405161158591906120dd565b60405180910390a15050565b60007f01ffc9a7000000000000000000000000000000000000000000000000000000007bffffffffffffffffffffffffffffffffffffffffffffffffffffffff1916827bffffffffffffffffffffffffffffffffffffffffffffffffffffffff1916149050919050565b60008073ffffffffffffffffffffffffffffffffffffffff1661161d8361106f565b73ffffffffffffffffffffffffffffffffffffffff1614159050919050565b50505050565b50505050565b60006116698473ffffffffffffffffffffffffffffffffffffffff1661192c565b156117d2578373ffffffffffffffffffffffffffffffffffffffff1663150b7a02611692610c1f565b8786866040518563ffffffff1660e01b81526004016116b49493929190612bd3565b602060405180830381600087803b1580156116ce57600080fd5b505af19250505080156116ff57506040513d601f19601f820116820180604052508101906116fc9190612c34565b60015b611782573d806000811461172f576040519150601f19603f3d011682016040523d82523d6000602084013e611734565b606091505b5060008151141561177a576040517f08c379a000000000000000000000000000000000000000000000000000000000815260040161177190612a35565b60405180910390fd5b805181602001fd5b63150b7a0260e01b7bffffffffffffffffffffffffffffffffffffffffffffffffffffffff1916817bffffffffffffffffffffffffffffffffffffffffffffffffffffffff1916149150506117d7565b600190505b949350505050565b6060600060016117ee8461194f565b01905060008167ffffffffffffffff81111561180d5761180c61216e565b5b6040519080825280601f01601f19166020018201604052801561183f5781602001600182028036833780820191505090505b509050600082602001820190505b6001156118ac578080600190039150507f3031323334353637383961626364656600000000000000000000000000000000600a86061a8153600a858161189657611895612c61565b5b04945060008514156118a7576118ac565b61184d565b819350505050919050565b6118ce816118c6611aa2611ac3565b63ffffffff16565b50565b6118db8383611ace565b6118e86000848484611648565b611927576040517f08c379a000000000000000000000000000000000000000000000000000000000815260040161191e90612a35565b60405180910390fd5b505050565b6000808273ffffffffffffffffffffffffffffffffffffffff163b119050919050565b600080600090507a184f03e93ff9f4daa797ed6e38ed64bf6a1f01000000000000000083106119ad577a184f03e93ff9f4daa797ed6e38ed64bf6a1f01000000000000000083816119a3576119a2612c61565b5b0492506040810190505b6d04ee2d6d415b85acef810000000083106119ea576d04ee2d6d415b85acef810000000083816119e0576119df612c61565b5b0492506020810190505b662386f26fc100008310611a1957662386f26fc100008381611a0f57611a0e612c61565b5b0492506010810190505b6305f5e1008310611a42576305f5e1008381611a3857611a37612c61565b5b0492506008810190505b6127108310611a67576127108381611a5d57611a5c612c61565b5b0492506004810190505b60648310611a8a5760648381611a8057611a7f612c61565b5b0492506002810190505b600a8310611a99576001810190505b80915050919050565b60006a636f6e736f6c652e6c6f679050600080835160208501845afa505050565b611d72819050919050565b600073ffffffffffffffffffffffffffffffffffffffff168273ffffffffffffffffffffffffffffffffffffffff161415611b3e576040517f08c379a0000000000000000000000000000000000000000000000000000000008152600401611b3590612cdc565b60405180910390fd5b611b47816115fb565b15611b87576040517f08c379a0000000000000000000000000000000000000000000000000000000008152600401611b7e90612d48565b60405180910390fd5b611b9560008383600161163c565b611b9e816115fb565b15611bde576040517f08c379a0000000000000000000000000000000000000000000000000000000008152600401611bd590612d48565b60405180910390fd5b6001600360008473ffffffffffffffffffffffffffffffffffffffff1673ffffffffffffffffffffffffffffffffffffffff16815260200190815260200160002060008282540192505081905550816002600083815260200190815260200160002060006101000a81548173ffffffffffffffffffffffffffffffffffffffff021916908373ffffffffffffffffffffffffffffffffffffffff160217905550808273ffffffffffffffffffffffffffffffffffffffff16600073ffffffffffffffffffffffffffffffffffffffff167fddf252ad1be2c89b69c2b068fc378daa952ba7f163c4a11628f55a4df523b3ef60405160405180910390a4611ce8600083836001611642565b5050565b828054611cf890612475565b90600052602060002090601f016020900481019282611d1a5760008555611d61565b82601f10611d3357805160ff1916838001178555611d61565b82800160010185558215611d61579182015b82811115611d60578251825591602001919060010190611d45565b5b509050611d6e9190611d7c565b5090565b611d7a612d68565b565b5b80821115611d95576000816000905550600101611d7d565b5090565b6000604051905090565b600080fd5b600080fd5b60007fffffffff0000000000000000000000000000000000000000000000000000000082169050919050565b611de281611dad565b8114611ded57600080fd5b50565b600081359050611dff81611dd9565b92915050565b600060208284031215611e1b57611e1a611da3565b5b6000611e2984828501611df0565b91505092915050565b60008115159050919050565b611e4781611e32565b82525050565b6000602082019050611e626000830184611e3e565b92915050565b600081519050919050565b600082825260208201905092915050565b60005b83811015611ea2578082015181840152602081019050611e87565b83811115611eb1576000848401525b50505050565b6000601f19601f8301169050919050565b6000611ed382611e68565b611edd8185611e73565b9350611eed818560208601611e84565b611ef681611eb7565b840191505092915050565b60006020820190508181036000830152611f1b8184611ec8565b905092915050565b6000819050919050565b611f3681611f23565b8114611f4157600080fd5b50565b600081359050611f5381611f2d565b92915050565b600060208284031215611f6f57611f6e611da3565b5b6000611f7d84828501611f44565b91505092915050565b600073ffffffffffffffffffffffffffffffffffffffff82169050919050565b6000611fb182611f86565b9050919050565b611fc181611fa6565b82525050565b6000602082019050611fdc6000830184611fb8565b92915050565b611feb81611fa6565b8114611ff657600080fd5b50565b60008135905061200881611fe2565b92915050565b6000806040838503121561202557612024611da3565b5b600061203385828601611ff9565b925050602061204485828601611f44565b9150509250929050565b60008060006060848603121561206757612066611da3565b5b600061207586828701611ff9565b935050602061208686828701611ff9565b925050604061209786828701611f44565b9150509250925092565b6000602082840312156120b7576120b6611da3565b5b60006120c584828501611ff9565b91505092915050565b6120d781611f23565b82525050565b60006020820190506120f260008301846120ce565b92915050565b61210181611e32565b811461210c57600080fd5b50565b60008135905061211e816120f8565b92915050565b6000806040838503121561213b5761213a611da3565b5b600061214985828601611ff9565b925050602061215a8582860161210f565b9150509250929050565b600080fd5b600080fd5b7f4e487b7100000000000000000000000000000000000000000000000000000000600052604160045260246000fd5b6121a682611eb7565b810181811067ffffffffffffffff821117156121c5576121c461216e565b5b80604052505050565b60006121d8611d99565b90506121e4828261219d565b919050565b600067ffffffffffffffff8211156122045761220361216e565b5b61220d82611eb7565b9050602081019050919050565b82818337600083830152505050565b600061223c612237846121e9565b6121ce565b90508281526020810184848401111561225857612257612169565b5b61226384828561221a565b509392505050565b600082601f8301126122805761227f612164565b5b8135612290848260208601612229565b91505092915050565b600080600080608085870312156122b3576122b2611da3565b5b60006122c187828801611ff9565b94505060206122d287828801611ff9565b93505060406122e387828801611f44565b925050606085013567ffffffffffffffff81111561230457612303611da8565b5b6123108782880161226b565b91505092959194509250565b600067ffffffffffffffff8211156123375761233661216e565b5b61234082611eb7565b9050602081019050919050565b600061236061235b8461231c565b6121ce565b90508281526020810184848401111561237c5761237b612169565b5b61238784828561221a565b509392505050565b600082601f8301126123a4576123a3612164565b5b81356123b484826020860161234d565b91505092915050565b6000602082840312156123d3576123d2611da3565b5b600082013567ffffffffffffffff8111156123f1576123f0611da8565b5b6123fd8482850161238f565b91505092915050565b6000806040838503121561241d5761241c611da3565b5b600061242b85828601611ff9565b925050602061243c85828601611ff9565b9150509250929050565b7f4e487b7100000000000000000000000000000000000000000000000000000000600052602260045260246000fd5b6000600282049050600182168061248d57607f821691505b602082108114156124a1576124a0612446565b5b50919050565b7f4552433732313a20617070726f76616c20746f2063757272656e74206f776e6560008201527f7200000000000000000000000000000000000000000000000000000000000000602082015250565b6000612503602183611e73565b915061250e826124a7565b604082019050919050565b60006020820190508181036000830152612532816124f6565b9050919050565b7f4552433732313a20617070726f76652063616c6c6572206973206e6f7420746f60008201527f6b656e206f776e6572206f7220617070726f76656420666f7220616c6c000000602082015250565b6000612595603d83611e73565b91506125a082612539565b604082019050919050565b600060208201905081810360008301526125c481612588565b9050919050565b7f4552433732313a2063616c6c6572206973206e6f7420746f6b656e206f776e6560008201527f72206f7220617070726f76656400000000000000000000000000000000000000602082015250565b6000612627602d83611e73565b9150612632826125cb565b604082019050919050565b600060208201905081810360008301526126568161261a565b9050919050565b7f4552433732313a20696e76616c696420746f6b656e2049440000000000000000600082015250565b6000612693601883611e73565b915061269e8261265d565b602082019050919050565b600060208201905081810360008301526126c281612686565b9050919050565b7f4552433732313a2061646472657373207a65726f206973206e6f74206120766160008201527f6c6964206f776e65720000000000000000000000000000000000000000000000602082015250565b6000612725602983611e73565b9150612730826126c9565b604082019050919050565b6000602082019050818103600083015261275481612718565b9050919050565b600081905092915050565b600061277182611e68565b61277b818561275b565b935061278b818560208601611e84565b80840191505092915050565b60006127a38285612766565b91506127af8284612766565b91508190509392505050565b7f4e487b7100000000000000000000000000000000000000000000000000000000600052601160045260246000fd5b60006127f582611f23565b91507fffffffffffffffffffffffffffffffffffffffffffffffffffffffffffffffff821415612828576128276127bb565b5b600182019050919050565b7f4552433732313a207472616e736665722066726f6d20696e636f72726563742060008201527f6f776e6572000000000000000000000000000000000000000000000000000000602082015250565b600061288f602583611e73565b915061289a82612833565b604082019050919050565b600060208201905081810360008301526128be81612882565b9050919050565b7f4552433732313a207472616e7366657220746f20746865207a65726f2061646460008201527f7265737300000000000000000000000000000000000000000000000000000000602082015250565b6000612921602483611e73565b915061292c826128c5565b604082019050919050565b6000602082019050818103600083015261295081612914565b9050919050565b7f4552433732313a20617070726f766520746f2063616c6c657200000000000000600082015250565b600061298d601983611e73565b915061299882612957565b602082019050919050565b600060208201905081810360008301526129bc81612980565b9050919050565b7f4552433732313a207472616e7366657220746f206e6f6e20455243373231526560008201527f63656976657220696d706c656d656e7465720000000000000000000000000000602082015250565b6000612a1f603283611e73565b9150612a2a826129c3565b604082019050919050565b60006020820190508181036000830152612a4e81612a12565b9050919050565b60006040820190508181036000830152612a6f8185611ec8565b90508181036020830152612a838184611ec8565b90509392505050565b60006040820190508181036000830152612aa68185611ec8565b9050612ab560208301846120ce565b9392505050565b60006040820190508181036000830152612ad68185611ec8565b9050612ae56020830184611fb8565b9392505050565b7f45524337323155524953746f726167653a2055524920736574206f66206e6f6e60008201527f6578697374656e7420746f6b656e000000000000000000000000000000000000602082015250565b6000612b48602e83611e73565b9150612b5382612aec565b604082019050919050565b60006020820190508181036000830152612b7781612b3b565b9050919050565b600081519050919050565b600082825260208201905092915050565b6000612ba582612b7e565b612baf8185612b89565b9350612bbf818560208601611e84565b612bc881611eb7565b840191505092915050565b6000608082019050612be86000830187611fb8565b612bf56020830186611fb8565b612c0260408301856120ce565b8181036060830152612c148184612b9a565b905095945050505050565b600081519050612c2e81611dd9565b92915050565b600060208284031215612c4a57612c49611da3565b5b6000612c5884828501612c1f565b91505092915050565b7f4e487b7100000000000000000000000000000000000000000000000000000000600052601260045260246000fd5b7f4552433732313a206d696e7420746f20746865207a65726f2061646472657373600082015250565b6000612cc6602083611e73565b9150612cd182612c90565b602082019050919050565b60006020820190508181036000830152612cf581612cb9565b9050919050565b7f4552433732313a20746f6b656e20616c7265616479206d696e74656400000000600082015250565b6000612d32601c83611e73565b9150612d3d82612cfc565b602082019050919050565b60006020820190508181036000830152612d6181612d25565b9050919050565b7f4e487b7100000000000000000000000000000000000000000000000000000000600052605160045260246000fdfea2646970667358221220b226dc7855556960612c54e2af23a77166d98c6e2d4a23b00fe0af72a4cb8aa464736f6c63430008090033",
  "linkReferences": {},
  "deployedLinkReferences": {}
}